{
  "contractName": "ArtexToken",
  "abi": [
    {
      "constant": true,
      "inputs": [],
      "name": "totalSupply",
      "outputs": [
        {
          "name": "",
          "type": "uint256"
        }
      ],
      "payable": false,
      "stateMutability": "view",
      "type": "function",
      "signature": "0x18160ddd"
    },
    {
      "inputs": [],
      "payable": false,
      "stateMutability": "nonpayable",
      "type": "constructor",
      "signature": "constructor"
    }
  ],
  "bytecode": "0x608060405234801561001057600080fd5b50620f4240600081905550609e806100296000396000f3fe608060405260043610603f576000357c0100000000000000000000000000000000000000000000000000000000900463ffffffff16806318160ddd146044575b600080fd5b348015604f57600080fd5b506056606c565b6040518082815260200191505060405180910390f35b6000548156fea165627a7a723058208ceee9198a07049230f72fa7c9638982860521ec798a41bc685bf86be67b71fd0029",
  "source": "pragma solidity ^0.5.0;\r\ncontract ArtexToken {\r\n\r\n  uint256 public totalSupply ; // state var written on the blockchain\r\n                                // it is required in ERC20 standard as well\r\n\r\n  // constructor\r\n  constructor () public  {\r\n    totalSupply = 1000000;\r\n\r\n  }\r\n  // Set the tokens\r\n\r\n  // Read the total num of tokens\r\n\r\n\r\n\r\n}\r\n",
  "sourcePath": "D:/Ethereum/Projects/token_sale/contracts/ArtexToken.sol",
  "compiler": {
    "name": "solc",
    "version": "0.5.0+commit.1d4f565a.Emscripten.clang"
  },
  "schemaVersion": "3.0.1",
  "updatedAt": "2020-04-06T15:06:15.951Z",
  "devdoc": {
    "methods": {}
  },
  "userdoc": {
    "methods": {}
  }
}